{
  "contractName": "DragonFeeding",
  "abi": [
    {
      "constant": true,
      "inputs": [],
      "name": "owner",
      "outputs": [
        {
          "name": "",
          "type": "address"
        }
      ],
      "payable": false,
      "stateMutability": "view",
      "type": "function"
    },
    {
      "constant": true,
      "inputs": [
        {
          "name": "",
          "type": "uint256"
        }
      ],
      "name": "DragonToOwner",
      "outputs": [
        {
          "name": "",
          "type": "address"
        }
      ],
      "payable": false,
      "stateMutability": "view",
      "type": "function"
    },
    {
      "constant": false,
      "inputs": [
        {
          "name": "newOwner",
          "type": "address"
        }
      ],
      "name": "transferOwnership",
      "outputs": [],
      "payable": false,
      "stateMutability": "nonpayable",
      "type": "function"
    },
    {
      "constant": true,
      "inputs": [
        {
          "name": "",
          "type": "uint256"
        }
      ],
      "name": "Dragons",
      "outputs": [
        {
          "name": "name",
          "type": "string"
        },
        {
          "name": "dna",
          "type": "uint256"
        },
        {
          "name": "level",
          "type": "uint32"
        },
        {
          "name": "readyTime",
          "type": "uint32"
        },
        {
          "name": "winCount",
          "type": "uint16"
        },
        {
          "name": "lossCount",
          "type": "uint16"
        }
      ],
      "payable": false,
      "stateMutability": "view",
      "type": "function"
    },
    {
      "constant": false,
      "inputs": [
        {
          "name": "_name",
          "type": "string"
        }
      ],
      "name": "createRandomDragon",
      "outputs": [],
      "payable": false,
      "stateMutability": "nonpayable",
      "type": "function"
    },
    {
      "anonymous": false,
      "inputs": [
        {
          "indexed": false,
          "name": "DragonId",
          "type": "uint256"
        },
        {
          "indexed": false,
          "name": "name",
          "type": "string"
        },
        {
          "indexed": false,
          "name": "dna",
          "type": "uint256"
        }
      ],
      "name": "NewDragon",
      "type": "event"
    },
    {
      "anonymous": false,
      "inputs": [
        {
          "indexed": true,
          "name": "previousOwner",
          "type": "address"
        },
        {
          "indexed": true,
          "name": "newOwner",
          "type": "address"
        }
      ],
      "name": "OwnershipTransferred",
      "type": "event"
    },
    {
      "constant": false,
      "inputs": [
        {
          "name": "_address",
          "type": "address"
        }
      ],
      "name": "setKittyContractAddress",
      "outputs": [],
      "payable": false,
      "stateMutability": "nonpayable",
      "type": "function"
    },
    {
      "constant": false,
      "inputs": [
        {
          "name": "_DragonId",
          "type": "uint256"
        },
        {
          "name": "_kittyId",
          "type": "uint256"
        }
      ],
      "name": "feedOnKitty",
      "outputs": [],
      "payable": false,
      "stateMutability": "nonpayable",
      "type": "function"
    }
  ],
  "bytecode": "0x60806040526010600155600154600a0a60025562015180600355336000806101000a81548173ffffffffffffffffffffffffffffffffffffffff021916908373ffffffffffffffffffffffffffffffffffffffff160217905550610ef5806100686000396000f300608060405260043610610083576000357c0100000000000000000000000000000000000000000000000000000000900463ffffffff16806317a7f4cc146100885780635f4623f1146100bf5780638da5cb5b14610102578063ed55666314610159578063f2fde38b146101c6578063fd19971514610209578063fdccc83e146102fa575b600080fd5b34801561009457600080fd5b506100bd6004803603810190808035906020019092919080359060200190929190505050610363565b005b3480156100cb57600080fd5b50610100600480360381019080803573ffffffffffffffffffffffffffffffffffffffff16906020019092919050505061050c565b005b34801561010e57600080fd5b506101176105ab565b604051808273ffffffffffffffffffffffffffffffffffffffff1673ffffffffffffffffffffffffffffffffffffffff16815260200191505060405180910390f35b34801561016557600080fd5b50610184600480360381019080803590602001909291905050506105d0565b604051808273ffffffffffffffffffffffffffffffffffffffff1673ffffffffffffffffffffffffffffffffffffffff16815260200191505060405180910390f35b3480156101d257600080fd5b50610207600480360381019080803573ffffffffffffffffffffffffffffffffffffffff169060200190929190505050610603565b005b34801561021557600080fd5b5061023460048036038101908080359060200190929190505050610758565b60405180806020018781526020018663ffffffff1663ffffffff1681526020018563ffffffff1663ffffffff1681526020018461ffff1661ffff1681526020018361ffff1661ffff168152602001828103825288818151815260200191508051906020019080838360005b838110156102ba57808201518184015260208101905061029f565b50505050905090810190601f1680156102e75780820380516001836020036101000a031916815260200191505b5097505050505050505060405180910390f35b34801561030657600080fd5b50610361600480360381019080803590602001908201803590602001908080601f0160208091040260200160405190810160405280939291908181526020018383808284378201915050505050509192919290505050610877565b005b6000600760009054906101000a900473ffffffffffffffffffffffffffffffffffffffff1673ffffffffffffffffffffffffffffffffffffffff1663e98b7f4d836040518263ffffffff167c01000000000000000000000000000000000000000000000000000000000281526004018082815260200191505061014060405180830381600087803b1580156103f757600080fd5b505af115801561040b573d6000803e3d6000fd5b505050506040513d61014081101561042257600080fd5b81019080805190602001909291908051906020019092919080519060200190929190805190602001909291908051906020019092919080519060200190929190805190602001909291908051906020019092919080519060200190929190805190602001909291905050509091929394959697985090919293949596975090919293949596509091929394955090919293945090919293509091925090915090508091505061050783826040805190810160405280600581526020017f6b697474790000000000000000000000000000000000000000000000000000008152506108f0565b505050565b6000809054906101000a900473ffffffffffffffffffffffffffffffffffffffff1673ffffffffffffffffffffffffffffffffffffffff163373ffffffffffffffffffffffffffffffffffffffff1614151561056757600080fd5b80600760006101000a81548173ffffffffffffffffffffffffffffffffffffffff021916908373ffffffffffffffffffffffffffffffffffffffff16021790555050565b6000809054906101000a900473ffffffffffffffffffffffffffffffffffffffff1681565b60056020528060005260406000206000915054906101000a900473ffffffffffffffffffffffffffffffffffffffff1681565b6000809054906101000a900473ffffffffffffffffffffffffffffffffffffffff1673ffffffffffffffffffffffffffffffffffffffff163373ffffffffffffffffffffffffffffffffffffffff1614151561065e57600080fd5b600073ffffffffffffffffffffffffffffffffffffffff168173ffffffffffffffffffffffffffffffffffffffff161415151561069a57600080fd5b8073ffffffffffffffffffffffffffffffffffffffff166000809054906101000a900473ffffffffffffffffffffffffffffffffffffffff1673ffffffffffffffffffffffffffffffffffffffff167f8be0079c531659141344cd1fd0a4f28419497f9722a3daafe3b4186f6b6457e060405160405180910390a3806000806101000a81548173ffffffffffffffffffffffffffffffffffffffff021916908373ffffffffffffffffffffffffffffffffffffffff16021790555050565b60048181548110151561076757fe5b9060005260206000209060030201600091509050806000018054600181600116156101000203166002900480601f0160208091040260200160405190810160405280929190818152602001828054600181600116156101000203166002900480156108135780601f106107e857610100808354040283529160200191610813565b820191906000526020600020905b8154815290600101906020018083116107f657829003601f168201915b5050505050908060010154908060020160009054906101000a900463ffffffff16908060020160049054906101000a900463ffffffff16908060020160089054906101000a900461ffff169080600201600a9054906101000a900461ffff16905086565b600080600660003373ffffffffffffffffffffffffffffffffffffffff1673ffffffffffffffffffffffffffffffffffffffff168152602001908152602001600020541415156108c657600080fd5b6108cf82610ac5565b90506064818115156108dd57fe5b06810390506108ec8282610b47565b5050565b600080846005600082815260200190815260200160002060009054906101000a900473ffffffffffffffffffffffffffffffffffffffff1673ffffffffffffffffffffffffffffffffffffffff163373ffffffffffffffffffffffffffffffffffffffff1614151561096157600080fd5b60048681548110151561097057fe5b9060005260206000209060030201925061098983610dd3565b151561099457600080fd5b600254858115156109a157fe5b0694506002858460010154018115156109b657fe5b04915060405180807f6b697474790000000000000000000000000000000000000000000000000000008152506005019050604051809103902060001916846040518082805190602001908083835b602083101515610a295780518252602082019150602081019050602083039250610a04565b6001836020036101000a0380198251168184511680821785525050505050509050019150506040518091039020600019161415610a75576063606483811515610a6e57fe5b0683030191505b610ab46040805190810160405280600681526020017f4e6f4e616d65000000000000000000000000000000000000000000000000000081525083610b47565b610abd83610dfa565b505050505050565b600080826040518082805190602001908083835b602083101515610afe5780518252602082019150602081019050602083039250610ad9565b6001836020036101000a038019825116818451168082178552505050505050905001915050604051809103902060019004905060025481811515610b3e57fe5b06915050919050565b60006001600460c060405190810160405280868152602001858152602001600163ffffffff168152602001600354420163ffffffff168152602001600061ffff168152602001600061ffff16815250908060018154018082558091505090600182039060005260206000209060030201600090919290919091506000820151816000019080519060200190610bdd929190610e24565b506020820151816001015560408201518160020160006101000a81548163ffffffff021916908363ffffffff16021790555060608201518160020160046101000a81548163ffffffff021916908363ffffffff16021790555060808201518160020160086101000a81548161ffff021916908361ffff16021790555060a082015181600201600a6101000a81548161ffff021916908361ffff1602179055505050039050336005600083815260200190815260200160002060006101000a81548173ffffffffffffffffffffffffffffffffffffffff021916908373ffffffffffffffffffffffffffffffffffffffff160217905550600660003373ffffffffffffffffffffffffffffffffffffffff1673ffffffffffffffffffffffffffffffffffffffff168152602001908152602001600020600081548092919060010191905055507f094a968afe62c9f0ce8d6395ff90deb5cbe7809a9ea66019ef5c61335ab3f1178184846040518084815260200180602001838152602001828103825284818151815260200191508051906020019080838360005b83811015610d92578082015181840152602081019050610d77565b50505050905090810190601f168015610dbf5780820380516001836020036101000a031916815260200191505b5094505050505060405180910390a1505050565b6000428260020160049054906101000a900463ffffffff1663ffffffff1611159050919050565b60035442018160020160046101000a81548163ffffffff021916908363ffffffff16021790555050565b828054600181600116156101000203166002900490600052602060002090601f016020900481019282601f10610e6557805160ff1916838001178555610e93565b82800160010185558215610e93579182015b82811115610e92578251825591602001919060010190610e77565b5b509050610ea09190610ea4565b5090565b610ec691905b80821115610ec2576000816000905550600101610eaa565b5090565b905600a165627a7a723058207b5a1ed96cdb3ce1bf7d8228f7a4c5c46628152e07bc2d69a9688a233114a9060029",
  "source": "pragma solidity ^0.4.19;\n\nimport \"./dragonlair.sol\";\n\ncontract KittyInterface {\n  function getKitty(uint256 _id) external view returns (\n    bool isGestating,\n    bool isReady,\n    uint256 cooldownIndex,\n    uint256 nextActionAt,\n    uint256 siringWithId,\n    uint256 birthTime,\n    uint256 matronId,\n    uint256 sireId,\n    uint256 generation,\n    uint256 genes\n  );\n}\n\ncontract DragonFeeding is DragonLair {\n\n  KittyInterface kittyContract;\n\n  modifier onlyOwnerOf(uint _DragonId) {\n    require(msg.sender == DragonToOwner[_DragonId]);\n    _;\n  }\n\n  function setKittyContractAddress(address _address) external onlyOwner {\n    kittyContract = KittyInterface(_address);\n  }\n\n  function _triggerCooldown(Dragon storage _Dragon) internal {\n    _Dragon.readyTime = uint32(now + cooldownTime);\n  }\n\n  function _isReady(Dragon storage _Dragon) internal view returns (bool) {\n      return (_Dragon.readyTime <= now);\n  }\n\n  function feedAndMultiply(uint _DragonId, uint _targetDna, string _species) internal onlyOwnerOf(_DragonId) {\n    Dragon storage myDragon = Dragons[_DragonId];\n    require(_isReady(myDragon));\n    _targetDna = _targetDna % dnaModulus;\n    uint newDna = (myDragon.dna + _targetDna) / 2;\n    if (keccak256(_species) == keccak256(\"kitty\")) {\n      newDna = newDna - newDna % 100 + 99;\n    }\n    _createDragon(\"NoName\", newDna);\n    _triggerCooldown(myDragon);\n  }\n\n  function feedOnKitty(uint _DragonId, uint _kittyId) public {\n    uint kittyDna;\n    (,,,,,,,,,kittyDna) = kittyContract.getKitty(_kittyId);\n    feedAndMultiply(_DragonId, kittyDna, \"kitty\");\n  }\n}\n",
  "sourcePath": "/home/web_admin/Desktop/firecoin3/contracts/dragonfeeding.sol",
  "compiler": {
    "name": "solc",
    "version": "0.4.24+commit.e67f0147.Emscripten.clang"
  },
  "schemaVersion": "2.0.1",
  "updatedAt": "2019-01-01T06:37:10.934Z"
}